:020000040800F2
:1000000050060020C5000008C1270008532300083F
:1000100000000000000000000000000000000000E0
:100020000000000000000000000000007929000826
:10003000000000000000000009280008F529000861
:10004000D700000800000000D7000008D700000813
:10005000D7000008D7000008D7000008D700000824
:1000600000000000B5090008D7000008D70000080C
:10007000D7000008D7000008D700000800000000E3
:10008000A92A00080000000000000000D7000008B6
:1000900000000000D7000008D7000008D7000008C3
:1000A00000000000D700000800000000D700000892
:1000B0000348854600F002FB0048004785330008EE
:1000C000500600200448804704480047FEE7FEE74A
:1000D000FEE7FEE7FEE7FEE74D2A0008B100000854
:1000E00030B50B46014600202022012409E00D46D0
:1000F000D5409D4205D31D469540491B2546954058
:1001000040191546521E002DF1DC30BD10B5202AD5
:1001100004DB0846203AD040002110BD0B46D340F6
:10012000D0402024A21A91400843194610BD03462E
:100130000B439B0703D009E008C9121F08C0042A1B
:10014000FAD203E00B780370401C491C521EF9D20E
:100150007047D2B201E00270401C491EFBD27047CA
:100160000022F6E710B513460A4604461946FFF783
:10017000F0FF204610BD0000F0B507460846584085
:1001800087B0C00F049048000E4659004008490847
:10019000BC1A884105D2384631461E4617460B46E2
:1001A00002465800400810434CD0300D03904005E3
:1001B0005900400D490D0590401A0290402872DA0E
:1001C00018030121000B09050843019004980092CF
:1001D000002805D0019952420020884100920190E8
:1001E000029840210A1A0199009800F0CFF90546BB
:1001F0000C466B4607CB00F0D9F9C0197141039A40
:100200000E0D0023D71756401A467A40164344D0A5
:10021000049A002A2DD0029A012A039A15DC1205AD
:10022000C01A914101263605001C7141D20F059E6E
:10023000D2070093019202962A46234600F0D6F98F
:1002400007B0F0BD38463146FAE71605224A0F4698
:10025000B218C01AB74101210905001C4F4100180E
:100260007F41114618187941E20F10436D1964411E
:1002700013E0E2076D0815436408C2071443039AAC
:1002800001261205C01A91413605001C7141CE07A6
:10029000400830434908C01851412A46234600F01F
:1002A00098F9CDE7FFE7049801224000C117121A20
:1002B00000238B4104983146C417381AA141EEE758
:1002C00030B40124E407634030BC55E730B4012466
:1002D000E407614030BC4FE70000E0FFF0B51FB419
:1002E00088B00B990998002448400999C00F49002B
:1002F00049080991C0070B990090490049080B91E2
:1003000009990898A64608431CD00B990A980843F7
:1003100018D0099801244000420D4800410D099869
:1003200024050003000B204309900B980003000BE9
:1003300020430B9050181C4940180022019014468D
:10034000104605E0002001460DB0F0BD032801DA9B
:10035000034600E003239C46C11A0AAE0AE05F0090
:1003600008ADED5B4F00F75B7D430027AA187C4189
:10037000491C5B1E6145F2DD410004AB5A52210469
:10038000120C0A43240C401C0828DFDB0198029061
:100390000099704601910090059B049A0799069870
:1003A00000F024F9D0E700000DFCFFFFF0B50C468B
:1003B0005C4085B0E40FE40703944C000026640819
:1003C00059009446490802460296224321D06246CB
:1003D0000A431ED06200570D4A000E032303550D39
:1003E000012402462C492405781B1B0B360B4018B0
:1003F00023432643614600901C46501AB44103D360
:100400000098401C009002E0921800985B41002880
:1004100003DA0020014605B0F0BD002001210905E6
:100420000746864611E064461D46141BB54106D3B7
:100430006546521BB341744607430C43A646CD079D
:1004400040084908284392185B4105460D43EAD10C
:100450001046184313D06046194650407140084377
:1004600006D06046101AB34106D20122002306E0EE
:1004700000220123DB0702E00122D243531000983F
:1004800074460105381C6141029C039D00196941B5
:1004900000F09FF8BFE70000FD0300000EB5C21793
:1004A000C10F5040CA0740180021054B029301922A
:1004B00000910A460B4600F099F803B000BD000019
:1004C000330400000EB505490291002100910A464F
:1004D0000B46019100F08AF803B000BD3304000020
:1004E00070B5CD0F4A0009030123090B1B05194301
:1004F0000B4BED070024520D9A4201DA002070BD2B
:10050000074B34339A4203DC9A1AFFF7FFFD02E0EF
:100510000449511888402C43F1D0404270BD00007E
:10052000FF030000CDFBFFFF4A0009030123090B75
:100530001B051943094B10B5520D9A4201DA0020F0
:1005400010BD064B34339A4203DC9A1AFFF7DEFDE6
:1005500010BD03495118884010BD0000FF03000082
:10056000CDFBFFFF10B5002904DB0124E407404266
:100570008C412146002B04DB1C460123DB07524241
:10058000A3418B4200D1824210BD000010B5202A49
:1005900004DB0146203A9140002010BD9140202309
:1005A0009C1A0346E3401943904010BD10B5202A21
:1005B00006DBCB170846203A1041C1170B4306E073
:1005C0000B461341D0402024A21A914008431946FB
:1005D00010BD10B5002B08DA0024401C61419218B0
:1005E0005B411A4301D14008400010BDF0B51FB473
:1005F00082B005460C0003D0084602F0BDFB02E0C5
:1006000002F0BAFB20300246009021462846FFF750
:10061000BDFF049B059A04460F4618431143084347
:1006200014D0184610431BD0009840210A1A1846CF
:100630000599FFF76BFD05460E46009A059904984B
:10064000FFF7A4FF084305D0012004E02046394607
:1006500007B0F0BD0020C11705430E432C433743BC
:1006600000990E986305401A7905E40A00220C43AC
:10067000FD0A0A3002D500200146E9E701051019FC
:1006800069410C9C0D9D00196941FFF7A2FFDFE74E
:1006900070B54B005B0803430BD04B005C0D00268C
:1006A00033466542B341D417AD1AA34102DB0020A3
:1006B000014670BD12053018514170BD064C012530
:1006C000064E05E0E36807CC2B430C3C98471034FA
:1006D000B442F7D3FFF7F0FC58350008783500082E
:1006E00010B50146406A426C50231A420AD1416C4F
:1006F00001225202114341640168CA681205920F37
:1007000005D020E0C06B026B0846904710BD026A1E
:10071000002A18D10A68120715D58A6853070122E2
:10072000002B09DB4B680C24A3434B60416C130284
:1007300099431143416406E0416C2023194341640D
:10074000816C1143816400F075FB10BD10B5406AE7
:10075000416C402211434164816C04221143816445
:1007600000F097FB10BD10B5406A00F091FB10BD82
:10077000F8B5044600200090206881688907890F39
:10078000012905D10168C9072CD1C168090429D400
:100790008168154A102611400125002915D181686C
:1007A00029438160124811490068FFF799FC00E075
:1007B000401E00900028FBD100F0EEFE07460CE042
:1007C00000F0EAFEC01B022807D9606C3043606469
:1007D000A06C2843A0640120F8BD20680068C043D5
:1007E000C007EDD10020F8BD1700008040420F0087
:1007F0009C000020F8B52B4880688003070C00F0AF
:10080000CBFE86B200242848250129188A88121DAB
:10081000BA4231D34A88121FBA422DDC425D002A07
:1008200004D0012A09D0022A17D036E01E4801213F
:1008300022018154001F0680F8BD1B487D22001F45
:100840000088D2008018864227D98868002800D006
:1008500080471548001F068019E0134D2D1F28887A
:10086000FF302D30864218D98868002802D0012C2C
:1008700000D080472E8010E0425D012A0BD10A4A49
:10088000121F12883232964205D9C868804706493D
:100890000220485501E000214155641CE4B2042CBB
:1008A000B1D3F8BDB00000200400002010B5FF2037
:1008B000F53000F007F810BD10B5322000F002F856
:1008C00010BD000010B5044600F066FE0119044892
:1008D000044A4160022191610121017010BD0000B4
:1008E000780000200014004810B5074C207800283C
:1008F00009D000F051FE6168884204D30349022008
:1009000088620020207010BD78000020001400488C
:1009100010B51E4832214068FFF7E2FB01210903B0
:10092000081AFFF7CFFD02460B4600201849FFF7D3
:100930003DFD0022174BFFF7C3FC174C0022234656
:10094000FFF7CCFCFFF7F0FDFFF7BCFD00222346CC
:10095000FFF72CFD02F06CFB104C114B2246FFF709
:10096000BDFC00220F4BFFF707FC02460B46A00719
:100970000D49FFF71BFD22460C4BFFF7A1FC0C4C69
:100980000CCC083CFFF7F8FB03C410BDB0000020FE
:100990000000B0400000F03F0088C3406666666615
:1009A00066A2724000DCAE405CF8314166127140D4
:1009B0009000002010B5024800F0EAFB10BD0000D6
:1009C000EC01002010B504460068054940181421C8
:1009D000FFF786FB800020640248E06310BD000042
:1009E000F8FFFDBF0000024030B5056C0124AC40AB
:1009F000C56B6C60046863604368102B036803D0A8
:100A000099600068C26030BD9A600068C16030BD06
:100A100010B52C4C6178012926D002292AD000205B
:100A2000032930D004291ED1A17822462032012981
:100A30003FD0022941D0032915D1A0700221617055
:100A40006071A081204604221F490E30FFF76FFB22
:100A500000F062F8FFF72AFF00F09EFD7D21C9003B
:100A600040181A49086010BD1948A1894088401AE9
:100A700080B224E0174903C9FFF756FD80B21AE09F
:100A800001F07CFF10BDE179002909D00E490D4825
:100A90000422091F0E30FFF74AFBFFF707FF03E0B0
:100AA00008490E3108804880E07901214840E07112
:100AB00010BD106800880221E2E7906800880121DB
:100AC000DEE7000048000020A83400088400002071
:100AD000440000209000002070B50D490D480A88A0
:100AE00002804A8842800C795522034600211D78F5
:100AF000491C6A40C9B25B1C0429F8D3A24205D044
:100B00003C2101800A21418000F006F870BD000000
:100B1000003C0008440000207FB5002003900090B6
:100B2000154D01200195029000F07AFC03A968465A
:100B300000F0DEFB5524114A00201178401C4C4087
:100B4000C0B2521C0428F8D30C4E00233288294628
:100B5000012000F027FC084972880023891C01202D
:100B600000F020FC044922460023091D012000F06A
:100B700019FC00F00DFC7FBD003C00084400002083
:100B80007047000006490020C86106480169042238
:100B90001143016101694022114301617047000066
:100BA0003002002000200240064A0021D16106499F
:100BB0000A6902231A430A61486108694022104306
:100BC00008617047300200200020024010B5054B3C
:100BD0000022DA61044A136901242343136101806E
:100BE00010BD0000300200200020024010B50B4A6A
:100BF0000020D168CB060A4904D5C86902231843EE
:100C0000C8611020D3685B0705D5CB690124234355
:100C1000CB6104210843D06010BD000000200240D9
:100C20003002002070B5054600F0B6FC0646104CB8
:100C30000AE0681C08D0002D04D000F0ADFC801B39
:100C4000A84201D9032070BDE068C007F1D1E06877
:100C5000800601D52020E060E068C00602D4E0688C
:100C6000400703D5FFF7C2FF012070BD002070BD13
:100C700000200240F8B50546044640352878002695
:100C8000012808D001202870206881688907890F11
:100C9000012908D101E00220F8BD0168C90738D157
:100CA000C168090435D4616CFF22013291430222EC
:100CB00011436164C1688907890F0091C16889087F
:100CC0008900C1602068816892071143816000F04B
:100CD00063FC07460EE000F05FFCC01B022809D948
:100CE000606C022188431021084360640020287052
:100CF0000120F8BD206880680028ECDB2068C1680E
:100D0000009A1143C160606C80088000401C6064E0
:100D100004E0606C202108436064012600202870F4
:100D20003046F8BDF8B500250446403400952278D9
:100D3000012A39D00122227003689E68760767D4A1
:100D4000384F4E68BE424DD09E6A0F78BA40164367
:100D50009E620123826B1B079A421FD0012A1DD07D
:100D6000022A1BD0032A19D0042A17D0052A15D02D
:100D7000062A13D0072A11D002688B6856697607B5
:100D8000760FB3420AD05369DB08DB005361006879
:100D900042690B7A5B075B0F1A4342610A68102AAB
:100DA00004D0112A02D038E00220F8BD1E48836822
:100DB000102A07D001229205134383600868102887
:100DC00003D02AE00122D205F6E719481749006846
:100DD000FFF786F90A21484300E0401E00900028F2
:100DE000FBD11AE0986A0E78B24090439862096885
:100DF000102901D0112910D10B488268102904D084
:100E0000012189058A43826007E00121C905F9E7CC
:100E1000416C2022114341640125002020702846A6
:100E2000F8BD0000011000000027014040420F0003
:100E30009C000020F0B51449144A0B6814881D1951
:100E40000D6054884B681C194C6092888B689E1802
:100E50000E4A8E60083A13785B1CDBB21370322B9B
:100E60000BD300230F4613700C37BE603D607C60CF
:100E70000B604B608B600121517000688168042217
:100E800011438160F0BD0000A40000208800002014
:100E900070477047F8B500250446002803D0606C01
:100EA000002802D008E00120F8BD0020A064402105
:100EB0000855204600F0A8F8606C1022C0060028F3
:100EC00070DB2068816849076CD4616C1301994319
:100ED00002231943616481688907890F012905D1BB
:100EE0000168C9070FD1C16809040CD4C16818236F
:100EF0009943A3681943C160206801696368890048
:100F00008908194301612068C1683D4B1940C160DF
:100F1000A069E1698003C9030843216A4B031843B0
:100F2000636B012B02D001231B0300E00023184355
:100F3000E36818432369022B09D000231843236B6D
:100F4000666A5B0018430123012E02D00AE00423E5
:100F5000F4E7002927D0616C202631436164A16C3D
:100F60001943A164A16A0E46FF3EC23E02D0E66A62
:100F7000314308432168CE680643CE600126A16B49
:100F80003607B14213D0012911D002290FD003290D
:100F90000DD004290BD0052909D0062907D007292F
:100FA00005D010E028E0012109040843DAE72168B0
:100FB0004E69F608F6004E6121684E69278F7F075B
:100FC0007F0F3E434E612168C9680E4E3140814219
:100FD00007D10020A064606C80088000401C606421
:100FE00008E0606C0221884310436064A06C1843E1
:100FF000A06401252846F8BD606C10436064F8E7E2
:101000001902FEFFE7FF3F8370B586B00546142145
:101010006846FFF7A5F81B492868884230D11A496D
:101020008A69401502438A618A69024005924A69C9
:10103000000202434A6149690026014005910720E8
:10104000009003200190092069460296C00600F036
:10105000F9F90E480E4C41C48020266060604000C3
:10106000A0608000E0602020666120610848083CA4
:1010700000F0DCF8002801D0FFF782FDEC63656228
:1010800006B070BD0024014000100240080002407C
:10109000EC01002070B504462168002089684907EA
:1010A00021D425464035297801291CD001212970F9
:1010B000E169012904D02046FFF75AFB002811D12D
:1010C000616C0A4A1140FF22013211436164002120
:1010D000A164297022681C21116021688A68042398
:1010E0001A438A6070BD022070BD0000FEF1FFFF50
:1010F000F7B5044600680025806840073DD42646C1
:101100004036307801280AD001273770E06901287D
:1011100007D02046FFF72CFB050002D02EE002206E
:10112000FEBD606C16490840FF2101310843606430
:101130000020A0643070E16B12488862E16B1248B5
:10114000C862E16B1148086321681C2008602068B0
:1011500041681022114341602068C1683943C16071
:101160002168E06B4031029B019A00F08BF8206807
:10117000816804221143816000E002252846FEBDFB
:10118000FEF1FFFFE1060008670700084D070008B1
:10119000F0B4C16B0D6801680C680422066C13463C
:1011A000B3402B420DD063070BD50B689B0602D4CE
:1011B0000B6893430B60016C8A40C16B4A60C16A43
:1011C00019E00227B74002462F4001232032002FAA
:1011D00015D0A70713D50C68A40604D40C680A25FB
:1011E000AC430C605370036C02219940C36B59608F
:1011F00000211170816A002916D0F0BC0847082729
:10120000B7402F4210D024070ED50C680E25AC43F2
:101210000C60046C1946A140C46B61608363537019
:1012200000211170016BE6E7F0BC704770B5040057
:1012300024D00220214620310D46487022681168D2
:101240000F48A3680140606826691843E368334388
:10125000184363691843A3691843E36918430843B3
:1012600010602046FFF7AEFB0020A062E062206322
:101270006063A06301216970287070BD012070BD9A
:101280000FC0FFFFF8B504468C46203001780025DA
:10129000012909D00126067041780027012905D0CF
:1012A000077002252846F8BD0220F8BD02214170D2
:1012B000A76320680168490849000160614620462B
:1012C000FFF792FBE06A00282068016802D00E2236
:1012D000114306E00A2211430160206801680422DC
:1012E000914301602068016831430160DAE7000042
:1012F000F8B5054623480F46017E012601290BD08B
:10130000012101762868204C012807D02046FFF7EC
:1013100089FC002813D030E00220F8BD2046FFF7FA
:1013200081FC002829D1FFF72DFC2046FFF77AFC2D
:101330000646164801690422914301611DE0002020
:10134000C04338606C6812E02046FFF72DFC0E4861
:10135000FFF768FC06460D48026902218A430261D4
:10136000002E01D03C6008E0012080022418A8680B
:10137000810268680818A042E6D802480021017678
:101380003046F8BD3002002050C30000002002406B
:101390000348016980221143016100207047000069
:1013A00000200240F0B51FB407461A480024017E11
:1013B00015461E46012907D0012101761648FFF780
:1013C00031FC002803D020E0022005B0F0BD012F41
:1013D00002D0022F00D00427220128463146FEF712
:1013E00095FE81B2019862001018FFF7EFFB0A48E2
:1013F000FFF718FC09490A69520852000A610028DF
:1014000003D1641CE4B2BC42E6D3024900220A764E
:10141000DBE700003002002050C300000020024043
:1014200005480169090605D5044941600449416040
:1014300000207047012070470020024023016745CB
:10144000AB89EFCDF8B500238DE001249C40A44684
:1014500022407DD04C68022C01D0122C0CD1DC082B
:10146000A40027183C6A5D07ED0E0F26AE40B4437A
:101470000E69AE4026433E6205685E000324B44018
:101480000F79A543BF07BF0FB7402F4307604D68D3
:10149000012D05D0022D03D0112D01D0122D0ED11A
:1014A0008568CF68A543B7402F4387604768654686
:1014B000AF430D79ED06ED0F9D403D434560C56896
:1014C000A5438C68B4402C43C4604C68E40049D503
:1014D000284CA56901263543A561A4699D083440BF
:1014E0000094254CAD002F19BC689D072E0F0F25C9
:1014F000B540AC430925ED06A84201D100250FE017
:101500001E4DA84201D101250AE01D4DA84201D17E
:10151000022505E01B4DA84201D1032500E0052569
:10152000B5402543BD60184C25684E689543F603C9
:1015300000D51543256065684E689543B60300D510
:1015400015436560A5684E689543F60202D500E034
:1015500008E01543A560E5684E689543B60200D5DE
:101560001543E5605B1C0A681446DC4000D06CE75C
:10157000F8BD0000001002400000014000040048D7
:1015800000080048000C004800040140002A01D077
:1015900081617047816270470148006870470000B0
:1015A0009800002002480168491C01607047000053
:1015B0009800002010B50648016810221143016010
:1015C000002000F007F800F017F8002010BD000020
:1015D0000020024010B5044600F0C6F87D21C90085
:1015E000FEF77EFD00F0EEFB00222146501E00F0CB
:1015F00021F8002010BD000008B5084881690122CB
:1016000011438161816911400091C26901040A435B
:10161000C261C0690840009008BD0000001002408F
:10162000C106C90E012088400149086070470000CA
:1016300000E100E010B501F0C5F810BDF8B50546B1
:1016400044480E460068C007C00FB0420AD2414865
:10165000016849084900314301600068C007C00FB4
:10166000B0425CD128783C4C800705D56068F021F9
:101670008843A968084360602878C0073FD068683D
:10168000012813D02168022813D08907002946DADF
:1016900061688908890001436160FFF77DFF69681F
:1016A000074601290DD0022917D024E021688903BB
:1016B000ECE78901EAE7FFF76FFFC11B274881428A
:1016C00017D860680007800F0128F4D117E0FFF7F2
:1016D00063FFC11B214881420BD860680007800F5F
:1016E0000228F4D10BE0FFF757FFC11B1B488142D2
:1016F00001D90320F8BD60680007800FF3D11548B9
:101700000168C907C90FB1420BD9016849084900EE
:10171000314301600068C007C00FB04201D0012012
:10172000F8BD2878400706D560680721090288437C
:10173000E9680843606000F01DF86168084A09061E
:10174000090F515CC840074908600020FFF742FFBD
:101750000020F8BD00200240001002408813000065
:10176000083500089C000020014800687047000010
:101770009C00002010B512A30FCB88B06C460FC49C
:1017800013A30FCB0FC416494A680C20134603401D
:101790001448042B0FD0082B0DD193021B0F6C465D
:1017A000E45CC96A04AB0907090F595CD20304D58C
:1017B000FEF796FC604308B010BD0B486043FAE7A3
:1017C00002030405060708090A0B0C0D0E0F101082
:1017D0000102030405060708090A0B0C0D0E0F1081
:1017E0000010024000127A0000093D00FEB50446D8
:1017F0000078D04DC00747D068680007800F0128E7
:1018000007D068680007800F022809D16868C00304
:1018100006D52868800337D5606800287ED033E07D
:10182000012062680004012A11D08100002A01D041
:10183000052A10D02A6882432A60286888432860D5
:101840006068002814D0FFF7A7FE06460CE0296860
:1018500001432960F4E72A680A432A60F7E7FFF7A3
:101860009BFE801B64286FD828688003F7D50BE0A7
:10187000FFF792FE064604E0FFF78EFE801B642809
:10188000F1D828688003F7D4207801268007002843
:101890003BDA68680007800F07D068680007800F90
:1018A000022809D16868C00306D42868800715D5C6
:1018B000E068012832D111E0E0680028286815D0DE
:1018C00030432860FFF768FE074604E0FFF764FE38
:1018D000C01B0228C7D828688007F7D52868F821D8
:1018E00088432169C900084328600EE04008400091
:1018F0002860FFF751FE074604E0FFF74DFEC01BCE
:101900000228B0D828688007F7D42078000724D5AB
:10191000E0690028686A10D0304300E008E168629E
:10192000FFF73AFE074604E0FFF736FEC01B022829
:1019300099D8686A8007F7D50FE0400840006862D0
:10194000FFF72AFE074605E09DE0FFF725FEC01BD6
:10195000022888D8686A8007F7D4207804274007CF
:10196000002860DA00200190E869C00008D4E96925
:10197000B8060143E961E969014001200091019045
:101980006D480168C90511D40168821511430160D1
:10199000FFF702FE009005E0FFF7FEFD0099401AF8
:1019A000642870D864480068C005F5D5A06801288F
:1019B0000AD0002801D0052810D0286A400840002D
:1019C0002862286AB84301E0286A30432862A06888
:1019D000002812D0FFF7E0FD00900AE0286A3843A3
:1019E0002862F1E7FFF7D8FD0099411A5348814278
:1019F00049D8286A8007F5D50DE0FFF7CDFD0090A6
:101A000006E0FFF7C9FD0099411A4C4881423AD8D7
:101A1000286A8007F5D40198002804D0E9690120DC
:101A200000078143E9612078C00635D56069012847
:101A30000CD0401D686B23D038436863686B400846
:101A400040006863FFF7A8FD064622E0686B384354
:101A50006863686B30436863FFF79EFD064604E0E9
:101A6000FFF79AFD801B02285BD8686B8007F7D5CB
:101A7000686BF8218843A169C900084368630BE0DB
:101A8000B8436863F4E74CE0FFF786FD801B02284B
:101A900047D8686B8007F7D4206A002846D0696869
:101AA0000907890F022943D0012636060228286833
:101AB00005D0B0432860FFF76FFD044633E0B04324
:101AC0002860FFF769FD074604E0FFF765FDC01BCE
:101AD000022826D828688001F7D4E86AE16A00095C
:101AE00000010843E862616AA06A084369683D2210
:101AF0001204914308436860286830432860FFF768
:101B00004BFD044604E0FFF747FD001B022808D800
:101B100028688001F7D509E0FFF73EFD001B022889
:101B200001D90320FEBD28688001F5D40020FEBD48
:101B30000120FEBD0010024000700040881300002C
:101B4000F8B5040007D0002625464035A662687F18
:101B5000002802D005E00120F8BD2E77204600F0D5
:101B60004BF802236B7720680168402291430160A3
:101B70000721E0680902884201D9002201E0012220
:101B800012030F273F02B84202D0884200D0A6625B
:101B9000276B002F05D1884201D9236301E0012082
:101BA0002063A16860686369084321691943084399
:101BB0000123A1695B0219400843E1690843216AD6
:101BC0000843A16A084321680860616B606AA369E1
:101BD00008431B0C0427E1683B4019430843216874
:101BE000104348602068C1697A029143C16126664A
:101BF000012068770020F8BD10B586B00446142196
:101C00006846FEF7ADFA1149206888421CD1104899
:101C1000826981140A43826182690A40059242699D
:101C200049010A434261406908400590A0200090A4
:101C300002200190002103200390029104910920C9
:101C40006946C006FFF7FEFB06B010BD003001403C
:101C500000100240FFB5064604464036307F00279C
:101C600081B00D46012809D001203077FFF794FCA0
:101C70000090707F012804D002279DE0022005B06B
:101C8000F0BD002D72D0039800286FD0032070772C
:101C900000202066A5630399A1870399E18720644A
:101CA000B080F0802065E0640121A068C90388420B
:101CB00005D1206801680122920311430160206868
:101CC0000168490603D401684022114301600720DE
:101CD000E16800028142606823D9002802D0E08FC9
:101CE00001281AD121682888C86005E02068816829
:101CF000890706D52988C160E08F401EE087AD1CAA
:101D00000BE0049800283ED0401C06D0FFF744FCAE
:101D10000099411A0498814235D2E08F0028E5D11C
:101D200036E0002802D0E08F01282ED1E08F012874
:101D300003D921682888C8600CE0216828780873D6
:101D40000FE020688168890711D5E18F012906D944
:101D50002988C160E08F801EE087AD1C15E02978DE
:101D60000173E08F401EE0876D1C0EE023E00498B5
:101D7000002808D0401C08D0FFF70EFC0099411A3B
:101D80000498814201D3032716E0E08F0028D8D1C0
:101D90002046009A049900F038FD002801D0202048
:101DA0002066A068002803D12068C1688068009080
:101DB000206E002800D001270120707700203077A6
:101DC00038465CE7094910B5401E884201D9012018
:101DD00010BD074C60610321081F00F0F3FC0020D8
:101DE000A06107202061002010BD0000FFFFFF0060
:101DF00000E000E07047704770B502462032137F64
:101E0000012B1BD0012313770224547704686568E3
:101E10007026B5436560046865680E683543656083
:101E20000468A5688026B543A56000688468496891
:101E30000C43846053770020107770BD022070BD82
:101E400070B5040005D025462035687F002802D0F3
:101E500006E0012070BD00202877204600F00AF837
:101E600002206877211D206800F026FE0120687797
:101E7000002070BD08B5104A0168104891420FD18A
:101E8000C26902210A43C261C06900220840009071
:101E900011461020FFF7CEFB1020FFF7C1FB08BD55
:101EA000074A9142FBD1C26989150A43C261C069E0
:101EB0000840009008BD00000004004000100240EF
:101EC000002000400268D36801210B43D360006802
:101ED00002680A43026000207047F8B505460446D0
:101EE0002035287F012817D001272F770220687717
:101EF000226890687726FF23B0431B0298439060C6
:101F00000868502837D00EDC202857D006DC00287F
:101F10004ED0102840D14EE00220F8BD302850D0DD
:101F2000402839D13CE060282DD0702817D00122FC
:101F30001203801A0ED090422ED1CB684A6889686D
:101F4000206800F000FE206881680122920311439E
:101F5000816021E020688168C908C900F8E7CB6882
:101F60004A688968206800F0EEFD21688868B043FF
:101F70003043886010E0CA684968206800F0D8FEE5
:101F80005021206806E0CA684968206800F0E1FE38
:101F90006021206800F0E2FD6F7700202877F8BD0F
:101FA000CA684968206800F0C3FE40212068F1E754
:101FB00000212068EEE710212068EBE7202120684F
:101FC000E8E730212068E5E7704770B5044600680F
:101FD00001690025C9438907002915DBC168C94388
:101FE000890711D4E91E01610120207720688069EA
:101FF0008007204602D0FFF7E7FF04E000F0BCF8BE
:10200000204600F03DF9257720680169C94349075A
:1020100017D4C168C943490713D40421C9430161D6
:1020200002202077206880698005800F204602D03A
:10203000FFF7CAFF04E000F09FF8204600F020F907
:10204000257720680169C943090716D4C168C943C7
:10205000090712D40821C9430161042020772068B0
:10206000C0698007204602D0FFF7AEFF04E000F011
:1020700083F8204600F004F9257720680169C943F8
:10208000C90617D4C168C943C90613D41021C9436E
:102090000161082020772068C0698005800F2046F4
:1020A00002D0FFF791FF04E000F066F8204600F050
:1020B000E7F8257720680169C943C90708D1C168D5
:1020C000C943C90704D1891E0161204600F0FCF80C
:1020D00020680169C943090609D4C168C9430906D2
:1020E00005D48021C94301612046FFF783FE2068A3
:1020F0000169C943490609D4C168C943490605D4E1
:102100004021C9430161204600F022F9206801699D
:10211000C943890609D4C168C943890605D4202169
:10212000C94301612046FFF766FE70BD10B586B059
:10213000044614216846FEF713F80C4920688842CB
:1021400012D10B48426949010A4342614069084083
:1021500005900220009001900020029003900490CE
:1021600069460448FFF76EF906B010BD0020004034
:1021700000100240000400487047F8B506460446C7
:102180002036307F0D4601280DD001203077022007
:1021900070770427002A08D0042A16D0082A2AD0EB
:1021A0000C2A4DD137E00220F8BD206800F0DEFC9B
:1021B0002068816908221143816120688169B943DF
:1021C0008161206881692A6912E0206800F00AFDB7
:1021D000206882690121C9020A43826120688169FD
:1021E0000122920291438161206881692A69120269
:1021F0001143816124E0206800F02EFD2068C2694F
:1022000008210A43C2612068C169B943C1612068DD
:10221000C1692A6912E0206800F05AFD2068C1698E
:102220000122D2021143C1612068C26901218902E1
:102230008A43C2612068C1692A6912021143C161DF
:102240000120707700203077F8BD70B5040005D00C
:1022500025462035687F002802D006E0012070BDA9
:1022600000202877204600F00AF802206877211D18
:10227000206800F021FC01206877002070BD7047C5
:102280007047000010B504460068012200F050FCC1
:102290000A482168814205D00948814202D0094894
:1022A000814204D1486C0122D20310434864206863
:1022B0000168012211430160002010BD002C014083
:1022C0000044014000480140F8B500681D498842BB
:1022D00030D1C320C0000924E406A062002768466C
:1022E000077001231A4669461748FFF7B3FC4025DB
:1022F000A561A562154E707A002806D0012806D087
:10230000022818D0032804D118E0082100E0102189
:10231000A1610E4901230E3109181A460A48FFF738
:1023200099FCA561A562707A401CC0B27072042845
:1023300000D37772F8BD01214902E9E70121890242
:10234000E6E70000000400400801002048000020EB
:102350007047FEE7FEB52D4C2E4A2D48217860CA05
:102360000088012900D04008FEF7ACF82A46334621
:10237000FDF7A6FF05460E460022274BFDF7AEFFF0
:10238000FEF7AEF801900022244B28463146FDF7B7
:10239000A5FF07460A200091205EFEF77FF83A4627
:1023A000009BFDF7E9FEFEF79BF800B27D21490195
:1023B0006081884202DC4942884200DA61810A2158
:1023C000615E01982A46401801903346E169A06990
:1023D000FDF776FF0022124BFDF780FF07460091C4
:1023E0000198FEF75BF83A46009BFDF7C5FEFEF745
:1023F00077F8E661A561002801DA002003E00949C9
:10240000884200DD084608494863FEBD48000020B8
:10241000440000209000002000F8C14000409F4090
:102420000070A740A761000000200040F8B51248E6
:102430000069124CC00701250227217900260028D7
:102440000CD0002909D02671FEF736FAE078022870
:1024500003D1E57025706770A681F8BD207800284B
:10246000FBD00029F9D12571E070012801D1A681A6
:102470006770FEF721FAF8BD0014004848000020FC
:1024800010B5084900204863074908228881087070
:10249000C87048708870044804210E30FDF759FE5A
:1024A00010BD0000002000404800002010B5214C65
:1024B000207A002838D0A078002806D0A079401EC5
:1024C0000006000EA0712DD02EE01A4822788089D7
:1024D000401C81B2012A02D0022A20D024E0607977
:1024E0000022401CC3B2012063710A2B08D3627121
:1024F000E07163785B1CDBB26370022B00D9607003
:102500002379002B13D10C4BA1815B8899420ED308
:10251000A281E071022020700320607007E0A18199
:102520000A2904D3FFF7ACFF2078002801D0FFF779
:1025300011FF10BD4800002044000020F8B50646F9
:1025400000200F460F4D014603C50446083D2046B6
:10255000FDF7A4FF02460B463046394600F070FFF7
:1025600002460B460848E100411803C9FDF7B6FED4
:102570000CCD083DFDF700FE641C696028600A2C44
:10258000E5DBF8BD90000020B83400083EB500241B
:102590001749184800940194029412C004604460E2
:1025A000046144610125846185600821C461C160C2
:1025B000C0210162A902243032C03838FEF76AFC1B
:1025C0002803019004200290009469460948FEF710
:1025D000A9FB694607480095FEF7A4FB022000907E
:1025E00069460448FEF79EFB0248FEF743FB3EBDEA
:1025F00000240140BC000020F0B587B014216846DB
:10260000FDF7AEFD20484269012189050A43426178
:1026100042690A400592426949110A43426142698E
:102620000A400592426949000A4342614069174FD6
:1026300008400590002202213846FEF7A7FFCB266E
:10264000F600092000223146C006FEF79FFF012553
:10265000002400956946384602950194FEF7F2FE83
:102660000220009002946946019503943846FEF7D3
:10267000E9FE092002946946C0060096019503947C
:10268000FEF7E0FE07B0F0BD001002400014004865
:1026900010B510480E490160FF210531416001214C
:1026A000C903816007210902C16000210161416104
:1026B000C16101220162520241628261816207228C
:1026C000C262016308214163FFF73AFA10BD0000BE
:1026D000003001400801002010B588B01C21684678
:1026E000FDF73EFD11481049016000243F21846040
:1026F00041600F490461C16080218161FFF7A0FB47
:102700000A48FFF7A2FD602000907D20C0000190E4
:1027100002940022694604940448FFF72EFD034802
:10272000FFF704FD08B010BD00200040AC01002000
:10273000A861000010B586B00024009411480194EF
:102740000294039404940E49059401600F2184605F
:1027500041607D21046109018461C160FFF770FB64
:1027600001200003009069460648FFF7B6FB2020D1
:1027700004A911C103480839FFF73EFB06B010BD9C
:10278000000400406C01002010B50A4832210068A6
:10279000FDF7A6FCFDF796FE0022074BFDF79EFD18
:1027A0000022064BFDF702FEFFF7C8FEFEF7B0F869
:1027B00010BD0000B000002000C8E93F00806B4061
:1027C000704700008307FF22DB0E9A408907090E3D
:1027D000994000280BDA0007000F083883080848E2
:1027E0009B001818C36993430B43C3617047830868
:1027F00004489B001B1818689043084318607047F2
:1028000000ED00E000E400E07047F8B50F460B462D
:1028100015460092032104460022C90200F01BF86D
:102820002026002812D13B46002280212046009518
:1028300000F05CF8002809D103213B460022490240
:102840002046009500F007F8002803D0206E3043A2
:1028500020660320F8BDF8B51D4617460E4604460F
:102860003DE0032149028E4205D1002F03D1017BB7
:10287000684601700078681C31D0002D05D0FEF745
:102880008BFE0699401AA84229D320684168E022AD
:10289000914341606068C11FFD390CD10121A068DE
:1028A000C903884202D04911884204D120680168D6
:1028B0004022914301600120A16A4003814207D177
:1028C00021680A6882430A6021680A6802430A6034
:1028D000012040346077002020770320F8BD206875
:1028E00081683140B942BCD10020F8BDF8B51D4621
:1028F00017460E46044633E0681C31D0002D05D043
:10290000FEF74AFE0699401AA84229D3206841687A
:10291000E022914341606068C11FFD390CD1012163
:10292000A068C903884202D04911884204D12068B6
:1029300001684022914301600120A16A4003814265
:1029400007D121680A6882430A6021680A68024345
:102950000A60012040346077002020770320F8BD12
:10296000206881683046884304D00020B842C3D133
:102970000020F8BD0120F9E770470000F3B51B4DBA
:102980001B4C81B00F46022918D03C210198FDF75D
:10299000A7FBC2B20846AE5C26700A21FDF7A0FB79
:1029A000285C6070685CA07020460E38007A0028B1
:1029B00002D0202006432670E770FEBD64210198F6
:1029C000FDF78EFB2E5C084626700A21FDF788FB7A
:1029D000285C60700A210198FDF782FB685CA0709A
:1029E000D72EE9D100202070E6E70000AC340008C3
:1029F0005600002010B5FEF7D5FD10BD30B591B0E2
:102A000030216846FDF7ACFB002412200F940090A3
:102A100001200D940390059010200E9404900690D0
:102A2000C00302250A900C94089509940B946846FB
:102A3000FEF7DCFE07200C900E9400210D950F94FC
:102A40000CA8FEF7FBFD11B030BD00001348016873
:102A50000122114301604168114A1140416001683F
:102A6000104A114001600168012292049143016003
:102A700041683F22120491434160C16A090909017A
:102A8000C162016BFF22143291430163416B49081B
:102A9000490041630021816070470000001002403E
:102AA0000CB8FF08FFFFF6FE10B50248FFF78DFADD
:102AB00010BD00006C01002070B50268174B184E65
:102AC000984201D0B04203D17024A2434C68224303
:102AD000144C154D984208D0B04206D0134EB04267
:102AE00003D0A04201D0A84204D103263602B2434B
:102AF000CE6832438026B2434E69324302608A6810
:102B0000C2620A688262984203D0A04201D0A84201
:102B100001D1096901630121416170BD002C0140AF
:102B200000040040004401400048014000200040F3
:102B300010B50123046A8B409C430462036A8A40F7
:102B40001343036210BD30B58468FF252D021B02BC
:102B50001343AC430B432343836030BD826870232F
:102B60009A430A4307210A4382607047F0B5026A1C
:102B7000520852000262056A436882697024A243C7
:102B800092080C6892001443022295438A68134EFF
:102B90002A43114DA84204D0B04202D0104FB8428F
:102BA00006D10827BA43CF681743042297433A4611
:102BB000A84204D0B04202D0094DA84206D1032554
:102BC0002D02AB434D691D438B692B4343608461E8
:102BD000496841630262F0BD002C0140004401409D
:102BE0000048014070B5026A10239A430262046AE9
:102BF0004368826973252D02AA430D682D0215438F
:102C0000202294438A6812012243104CA04208D12A
:102C10001446CA688026B443120122434024A243CA
:102C200005E00B4CA04202D00A4CA04208D103247C
:102C3000A402A3434C69A4001C438B699B0023435B
:102C40004360856149688163026270BD002C014068
:102C5000004401400048014070B5026AFF2301337F
:102C60009A430262046A4368C2697025AA439208C3
:102C70000D68920015430122520294438A681202A1
:102C80002243104CA04207D1C414A243CC682402B2
:102C900022430615B24305E00B4CA04202D00B4C78
:102CA000A04208D103242403A3434C6924011C43FC
:102CB0008B691B0123434360C5614968C16302629C
:102CC00070BD0000002C014000440140004801405C
:102CD00030B5026A01231B039A430262056A426807
:102CE000C36973242402A3430C6824021C430123F8
:102CF0005B039D438B681B032B430A4DA84205D001
:102D0000094DA84202D0094DA84205D10125AD03C5
:102D1000AA434D69AD012A434260C4614968016418
:102D2000036230BD002C01400044014000480140D6
:102D300030B5036A046A6408640004628469F0259B
:102D4000AC43120122430A24A3430B438261036272
:102D500030BD30B5036A1024A34303628469036A5B
:102D60000F252D031203AC432243A024A3430901E2
:102D700019438261016230BD2021020C01D0102173
:102D80001046020A01D010460839020901D0104647
:102D9000091F820801D01046891E420801D0881EF2
:102DA0007047081A7047F8B504464F1EC800083827
:102DB000211815461E46086849683A4606239A4374
:102DC00010D02A463346FDF789FA3A46D200083A2F
:102DD000A3181A687F1E5B68FDF7CEF906223B46F2
:102DE0009343EED1022F23D0042F11D0062F2FD1E1
:102DF0002A463346FDF772FAE36AA26AFDF7BCF988
:102E00002A463346FDF76AFA636A226AFDF7B4F987
:102E10002A463346FDF762FAE369A269FDF7ACF989
:102E20002A463346FDF75AFA63692269FDF7A4F989
:102E30002A463346FDF752FAE368A268FDF79CF98B
:102E40002A463346FDF74AFA63682268FDF794F98B
:102E5000F8BD0000002210B5134610460149FDF7E9
:102E6000A5FA10BD0000F03F10B50122FDF710FCDF
:102E700010BD002210B5134610461146FDF796FA14
:102E800010BD02E008C8121F08C1002AFAD170471D
:102E90007047002001E001C1121F002AFBD17047DA
:102EA0000149086070470000A000002010B50E49DD
:102EB0008878002817D0C20008462030131818461A
:102EC0008038403B826F9B8F10881C460934A0429B
:102ED00002D90A38108000E0138014208871FDF7B1
:102EE00097FDFDF7E9FC10BD4800002010B50D4A24
:102EF0009078002815D0C1001046203008180146EF
:102F000080398B6F40381988808F814202D9491EE1
:102F1000198000E0188014209071FDF779FDFDF70D
:102F2000CBFC10BD4800002010B5094841780029AD
:102F300004D0FFF7A5FAFDF7BFFC10BD02214170D8
:102F400001210170FFF7B2FAFDF762FDF3E700001F
:102F50004800002010B50B484178002906D0817840
:102F6000002904D003218170FDF752FD10BD01211D
:102F700081701421817104214170FDF749FDFDF735
:102F80009BFC10BD4800002010B50948817800293D
:102F90000CD0491CC9B28170032901D30121817071
:102FA00014218171FDF734FDFDF786FC10BD000092
:102FB0004800002010B50E498878002817D0C200BC
:102FC00008462030131818468038403B826FDB8F4C
:102FD00010881C46093CA04202DA0A30108000E04A
:102FE000138014208871FDF713FDFDF765FC10BDFB
:102FF0004800002010B50D4A9078002815D0C10077
:10300000104620300818014680398B6F40381988E7
:10301000C08F814202D2491C198000E01880142020
:103020009071FDF7F5FCFDF747FC10BD480000204E
:10303000F0B5C54A00248FB091420ADA4B005B0814
:10304000934206D801254A006D05EA4205D10028C1
:1030500003D0FFF709FF0FB0F0BD01252D05A942F0
:1030600019DA034308D0002910DA0120FFF718FF0E
:10307000FFF7FFFE0FB0F0BD0220FFF711FFFFF7D3
:10308000E9FE0122D20751400FB0F0BD3524E443E0
:103090003622FDF7FDFA0A15AC4B1219D4180A03B3
:1030A000120BAB49AB4B56182E40314659401143D9
:1030B0000192321512190B920022FDF701F9019AC3
:1030C0000446921C1003A44E000B0D467E440328B8
:1030D00060D2204673683268FDF744FA1CD10B9821
:1030E000002815D0FDF7DAF904460E469B4A9C4BA2
:1030F000FDF7F4F80D4607469A4A9B4B20463146A9
:10310000FDF7ECF83A462B46FDF736F80FB0F0BD68
:10311000716830680FB0F0BD944A954B204629463F
:10312000FDF7DCF80022934BFDF7D0F806460F467A
:1031300022462B4610461946FDF7D0F832463B464C
:10314000FDF7CCF806460B980F4600281DD0FDF77A
:10315000A5F9824A824B05910490FDF7BFF83246EB
:103160003B46FDF7B3F822462B46FDF7A9F8044687
:103170000D467C4A7C4B05990498FDF7AFF8224632
:103180002B46FDF79DF80FB0F0BD0B4632462046AA
:103190002946C4E0012300229B072046FCF7ECFFF0
:1031A00002460B4620462946FDF700F906460F4623
:1031B0000B98FDF773F932463B4605910490104693
:1031C0001946FDF78BF809910C906B490198099B02
:1031D000421800920C9A19461046FDF77FF80246F5
:1031E00007910A90654901980B1A654801930321DC
:1031F0007844079BFFF7D7FD079B0A9AFDF76EF807
:103200000E905F480D9104217844079B0A9AFFF7BE
:10321000CAFD099B0C9AFDF761F8019B009A1A43BD
:1032200000920D9B0E9AFCF7A7FF009A01910C905B
:10323000002A4DDD0022D24320462946FDF728FA18
:1032400022462B46FDF74AF800910A900B98002879
:103250002BD0424A424B05990498FDF73FF807915D
:103260000E90019B0C9A00990A98FCF785FF324654
:103270003B46FDF733F8079B0E9AFCF77DFF009B5A
:103280000A9AFDF723F822462B46FDF719F8044663
:103290000D46344A344B05990498FDF71FF8224631
:1032A0002B46FDF70DF80FB0F0BD019B0C9A0A9864
:1032B000FCF762FF32463B46FDF710F8009B0A9A86
:1032C000FDF704F822462B46FDF700F80FB0F0BDDD
:1032D0000B98002827D0214A214B05990498FCF728
:1032E000FDFF0791009020462946019B0C9AFCF7B0
:1032F000E7FF32463B46FCF7F1FF079B009AFCF7DD
:10330000DFFF22462B46FCF7DBFF04460D46154A3D
:10331000154B05990498FCF7E1FF22462B46FCF774
:10332000CFFF0FB0F0BD0B46204629460C9AFCF7A4
:10333000C7FF32463B46FCF7D1FF22462B46FCF73F
:10334000C5FF0FB0F0BD00000000F07F01FCFFFFE3
:10335000645F09000000F03F80040000763C79358E
:10336000EF39EA3D0000E0FE422EE63F5555555547
:103370005555D53F0000E03F86EBF9FF51B80600F8
:103380002403000008B5FEF715F9FFF737FBFFF738
:1033900033F92748416901263143416140690022E0
:1033A0003040009011460920FEF744F90920FEF74D
:1033B00037F9FFF76DF9FFF7E9F8FFF7BBF9FFF70A
:1033C0008BF903221B491C48FDF792FE1A48FDF7B2
:1033D00061FE1948B030FEF775FD17480021F03046
:1033E000FEF750FFFDF778FBFFF74AF8114C134F3B
:1033F000083CFEF7D1F805466078002805D000208B
:103400006070FDF7F7F9FFF7BFF96068854209D3EF
:10341000FF35F5356560387870403870FFF746F84D
:10342000FDF7F6FAFFF702F8FDF75EFAE1E70000B4
:103430000010024088000020BC0000205000002046
:10344000FEB516461F4604460D4600220191009027
:10345000134630463946FDF785F802D10024104D59
:103460001AE000220E4B30463946FDF77BF813D0A8
:10347000022009E020462946019B009AFCF72EFF16
:10348000044602980D46401C0290FDF707F83246AC
:103490003B46FDF767F8EDD92046294603B0F0BD5D
:1034A0000000F03FCB98DC005B9FD600D714CD5DC9
:1034B0001E5BDB15DF5F0000000000000000000065
:1034C000AF94658863153940E08421F6321FB43F1C
:1034D00007AA903C2105D0BF2AF812CF7E49B53FFC
:1034E000805778556F2689BFC54287591C10503FB9
:1034F000C5DFE58F112307BF191D04D5EEBEB13E10
:103500002B970EF2949B46BE0000000000000000C6
:10351000010203040607080904FA97999999D93F0B
:10352000AF788E1DC571CC3F9FC678D0099AC33F36
:10353000935555555555E53F599322942449D23F0B
:10354000DE03CB966446C73F44523EDF12F1C23FD2
:103550000000000000000000783500080000002096
:10356000A4000000822E00081C360008A4000020E1
:10357000AC050000922E0008000000000000C0C74B
:1035800024C8000000000000292F00080000A863E4
:103590000C640000552F0008892F000800005542D8
:1035A000B9420000AD2E0008ED2E00080000AC313D
:1035B00010320000B52F0008F52F000800000000B1
:1035C00000000000000000000000000000000000FB
:1035D00000000000000000000000000000000000EB
:1035E000440000203C00FA00460000200A002C01A4
:1035F00000000000000000000000000000000000CB
:1036000000000000000000000000000000000000BA
:0C3610000000000000127A000000000022
:04000005080000B13E
:00000001FF
